:020000040800F2
:10000000C00C002031350008790200087B0200088E
:100010007F02000883020008870200080000000039
:100020000000000000000000000000008B0200083B
:100030008D020008000000008F02000891020008F5
:100040004B3500084B3500084B3500084B35000890
:100050004B3500084B3500084B3500084B35000880
:100060004B3500084B3500084B3500084B35000870
:100070004B3500084B3500084B3500084B35000860
:100080004B3500084B3500084B3500084B35000850
:100090004B3500084B3500084B3500084B35000840
:1000A0004B3500084B3500084B3500084B35000830
:1000B000990200084B3500084B3500084B35000805
:1000C0004B3500084B3500084B3500084B35000810
:1000D0004B350008F3140008491600084B3500089A
:1000E0004B3500084B3500084B3500084B350008F0
:1000F0004B3500084B3500084B3500084B350008E0
:100100004B3500084B3500084B3500084B350008CF
:100110004B3500084B3500084B3500084B350008BF
:100120004B3500084B3500084B3500084B350008AF
:1001300000F002F800F03FF80AA090E8000C8244BA
:100140008344AAF10107DA4501D100F034F8AFF297
:10015000090EBAE80F0013F0010F18BFFB1A43F0A5
:10016000010318473057000050570000103A24BFD1
:1001700078C878C1FAD8520724BF30C830C144BF0C
:1001800004680C607047000000230024002500264E
:10019000103A28BF78C1FBD8520728BF30C148BFEA
:1001A0000B607047642903F01583002070471FB56A
:1001B0001FBD10B510BD03F007FC1146FFF7F7FF98
:1001C00000F01BF803F025FC03B4FFF7F2FF03BCBB
:1001D00001F022F910B54FF4A06001F081FA00F0AF
:1001E00009F900F0BBF94FF4E13001F027F900F014
:1001F00039F900F0EFFD002010BD86B01822154936
:10020000684603F023FBFFF7E5FF13A003F0A2FA13
:100210001EE0002415E00120A0401649098808408E
:1002200068B10120A0401349098881431148018029
:100230005DF8240018B15DF82400804707E0601CD9
:1002400084B2062C03DA0B4800880028E3D100BFF3
:10025000DFE700002C3A0008626F617264496E6942
:100260007420646F6E6520323032322D30342D327E
:10027000350A0D0000000020704700BFFEE700BFF8
:10028000FEE700BFFEE700BFFEE77047704770471C
:1002900010B500F063F810BD10B50121880702F019
:1002A0002EFFD0B10D480088401C0C49088008463C
:1002B0000088B0F5FA7F02D101200949087007488B
:1002C0000088642805D101200649087000200349F0
:1002D00008800121880702F023FF10BD02000020E2
:1002E000050000200600002010B5002807DA0A07E4
:1002F000140E554A00F00F031B1FD45403E00A07E5
:10030000130E524A135410BD5149086000BF5049A2
:1003100009680029FBD1704770B5034600224FF0F1
:10032000E02675694B4E367803FB06F44FF0E02665
:10033000B16910E04FF0E026B06988420BD08842E6
:1003400002D20E1A324402E02E1A0E443244014602
:10035000A24200D300E0EDE700BF70BD10B53E48FB
:100360000068401C3C4908603948006820B13848A2
:100370000068401E36490860374800684FF4FA614B
:10038000B0FBF1F201FB1200B0F57A7F05D13348E2
:10039000008840F00100314908802F4800684FF480
:1003A0007A71B0FBF1F201FB1200142805D12B4841
:1003B000008840F01000294908802748006840F272
:1003C000DC51B0FBF1F201FB1200642805D1234897
:1003D000008840F00800214908801F4800684FF459
:1003E000FA71B0FBF1F201FB1200012801D100F01B
:1003F000F5F810BD10B5042001F0C1F918480068E7
:100400004FF47A71B0FBF1F4B4F1807F01D3012095
:1004100011E024F07F40401E4FF0E02148610F21A1
:100420004FF0FF30FFF760FF00204FF0E0218861C0
:1004300007200861002008B1012010BD0221C81E5C
:10044000FFF752FF0020F8E718ED00E000E400E0BD
:100450000C000020100000200800002000000020F8
:100460003800002000B587B00121102001F0EAFE1D
:100470000121880201F0E6FE002001908DF80800BD
:100480008DF809004FF460200390002004900120B3
:100490008DF8140001A9274801F0B7F91020ADF834
:1004A000180000208DF81B0006A9234801F00EFC5F
:1004B0000121204801F0D5F907B000BD10B5044670
:1004C0000723012221461B4801F037FA0121194870
:1004D00001F007FA00BF0221164801F073FB002863
:1004E000F9D0144801F090FA10BD2DE9F04107460B
:1004F0000C460025002608E03846FFF7DFFF0544DC
:100500000520FFF701FF701CC6B2A642F4DBB5FB65
:10051000F4F080B2BDE8F08110B503210E20FFF7A2
:10052000E4FF8010054908800846018804A003F014
:1005300011F910BD002801400010014012000020F8
:10054000675F6169725F7175616C6974795F76610B
:100550006C203D2025640A0D0000000008B5012133
:10056000142001F06FFE4FF48070ADF800001020F1
:100570008DF8030002208DF802006946214801F041
:10058000A5FB4FF480711F4801F04DFC8020ADF8B1
:10059000000069461C4801F099FB80211A4801F0CF
:1005A00042FC08BD10B5044624B98021164801F06C
:1005B0003CFC04E04FF48071124801F036FC10BDA1
:1005C00010B5044624B980210F4801F02CFC04E04A
:1005D0004FF480710B4801F026FC10BD10B50B489C
:1005E000007800F0010018B10020FFF7DBFF02E007
:1005F0000020FFF7E5FF05480078401C034908701C
:1006000010BD00000008014000100140140000204F
:1006100070B504460E462EB14FF48041F74801F004
:1006200002FC04E04FF48041F44801F0FEFB002599
:100630001BE04FF40051F14801F0F7FB04F080009B
:1006400028B14FF40041ED4801F0EDFB04E04FF418
:100650000041EA4801F0E9FB4FF40051E74801F09E
:10066000E2FB6006040E681CC5B2082DE1DB4FF406
:100670008041E24801F0D7FB70BD10B504461CB9BB
:100680000021A620FFF7C4FF012C03D10021A720E1
:10069000FFF7BEFF10BD10B5044644B90021C820C5
:1006A000FFF7B6FF0021A120FFF7B2FF07E000210E
:1006B000C020FFF7ADFF0021A020FFF7A9FF10BD6C
:1006C00010B500218D20FFF7A3FF00211420FFF7B4
:1006D0009FFF0021AF20FFF79BFF10BD10B5002149
:1006E0008D20FFF795FF00211020FFF791FF0021DB
:1006F000AE20FFF78DFF10BD70B500241CE004F1A3
:10070000B001C8B20021FFF783FF00210846FFF7C0
:100710007FFF00211020FFF77BFF002508E0B8498C
:1007200001EBC501085D0121FFF772FF681CC5B22E
:10073000802DF4DB601CC4B2082CE0DB70BD70B50A
:1007400000240CE0002506E00020AD4901EBC501C6
:100750000855681CC5B2802DF6DB601CC4B2082C9D
:10076000F0DBFFF7C9FF70BDF0B514460B46CF179D
:1007700001EB5777C7F3C702CF1701EB5777FF108D
:10078000A1EBC707FEB20123B340DDB24CB19C4BD5
:1007900003EBC0039B5C2B43994F07EBC007BB5493
:1007A0001AE0974B03EBC0039B5CDB43944F07EBD2
:1007B000C007BB54924B03EBC0039B5C2B43904F91
:1007C00007EBC007BB548E4B03EBC0039B5CDB43C2
:1007D0008B4F07EBC007BB54F0BD2DE9FF4F84B032
:1007E00081468A460020029083460698A0EB0904C1
:1007F0000798A0EB0A06CDF80490CDF800A0002CD5
:1008000001DD012705E00CB9002702E04FF0FF37BA
:100810006442002E02DD4FF0010806E016B94FF0E9
:10082000000802E04FF0FF386642B44201DD254681
:1008300000E03546002003901EE0009AD1B2019AF4
:10084000D0B2119AFFF790FF029820440290B3446F
:100850000298A84205DD0298401B02900198384496
:100860000190AB4504DDABEB050B009840440090D4
:100870000398401C80B20390691C03988842DCDB1B
:1008800008B0BDE8F08F2DE9F04306460F469046CC
:100890000025444643E03A1BD1B27219D0B201227E
:1008A000FFF762FF3A1BD1B2721BD0B20122FFF7F1
:1008B0005BFF3A19D1B2721BD0B20122FFF754FF8D
:1008C0003A19D1B27219D0B20122FFF74DFF7A194D
:1008D000D1B23219D0B20122FFF746FF7A1BD1B252
:1008E0003219D0B20122FFF73FFF7A1BD1B2321B7F
:1008F000D0B20122FFF738FF7A19D1B2321BD0B241
:100900000122FFF731FF6D1C05FB05F004FB04001D
:1009100008FB1809B9F1000F01DD641E6D1E6000AF
:10092000604308FB08F18842B5DABDE8F0832DE9A1
:10093000FE4F0746884692461C460197CDF8008038
:10094000082C02D14FF006091FE02046E31704EB04
:100950005373DB1021464FEAE47C04EB5C7C4FEAE6
:10096000EC0CA4EBCC0CBCF1000F02D04FF0010C4E
:1009700001E04FF0000C6344224604EBD27C4FEAC6
:100980006C0C03FB0CF303F0FF09AAF12000C6B2C4
:1009900000256AE0082C07D106EB4600194901EB57
:1009A000400010F805B01DE00C2C07D106EB460006
:1009B000154901EB800010F805B013E0102C05D1AB
:1009C000124800EB061010F805B00BE0182C07D108
:1009D00006EBC6000E4901EB800010F805B001E0FF
:1009E000BDE8FE8F0020029028E00BF0010088B1E6
:1009F000414638460C9AFFF7B7FE15E0000C01405F
:100A00004C000020443A00086C3C0008E04000081C
:100A1000D04600080C9808B9012000E000200246EA
:100A200041463846FFF7A0FE4FEA6B0B08F1010084
:100A300000F0FF080298401CC0B2029002980828FB
:100A4000D3DB781CC7B2082C0BD004EBD4714A104E
:100A50000199791A8A4204D1019F00980830C0B2E6
:100A60000090DDF80080681CC5B24D4592DB00BFE8
:100A7000B6E72DE9F84106460F4614461D46DDF857
:100A80001C8013E0CDF8008022782B463946304692
:100A9000FFF74DFF082D02D1B01DC6B205E0284674
:100AA00005EBD07106EB6101CEB2641C94F9000035
:100AB000202803DB94F900007E28E3DDBDE8F881FF
:100AC00010B50246012000E050430B1EA1F10104C5
:100AD000E1B2F9D110BD2DE9FF4F82B00646914633
:100AE0001F46DDE90F4A4FF0000B082C01D14FF0F3
:100AF000020B002530E0781B401EC1B20A20FFF730
:100B0000DFFFB9FBF0F00A21B0FBF1F201FB1208A4
:100B1000B8F1000F0ED104EBD4710BEB610101FBB6
:100B20000561C8B223463022CDE900A40399FFF73E
:100B3000FEFE0FE004EBD4710BEB610101FB0561DC
:100B4000C8B208F13001CAB22346CDE900A4039926
:100B5000FFF7EDFE681CC5B2BD42CCDB06B0BDE8B8
:100B6000F08F2DE9FC4F0746884616461C46BB46CB
:100B7000CDF804802046E21704EB5272D2102146D1
:100B8000E31704EB5373DB10A4EBC3030BB1012396
:100B900000E000231A44624392B20092002555E01F
:100BA000102C05D1FE4800EB461010F805A01BE004
:100BB000182C07D106EBC600FA4901EBC00010F86B
:100BC00005A011E0202C05D1F74800EBC61010F865
:100BD00005A009E0402C05D1F44800EB462010F8B0
:100BE00005A001E0BDE8FC8F4FF000091CE00AF011
:100BF000010028B1414638460B9AFFF7B5FD09E0E0
:100C00000B9808B9012000E0002002464146384612
:100C1000FFF7AAFD4FEA6A0A08F1010000F0FF0899
:100C200009F1010000F0FF09B9F1080FDFDB781CC2
:100C3000C7B2A7EB0B00A04204D15F460198083071
:100C4000C0B20190DDF80480681C85B2009885422E
:100C5000A6DB00BFC6E708B5804689469246002657
:100C600000274BE04FB91023324618218020CDF8E1
:100C700000A0FFF776FF701CC6B2464522D14FF0A8
:100C8000000B1AE0012410E000250AE0C84800EB40
:100C9000C400415D601EC64A02EBC0004155681C9D
:100CA000C5B2082DF2DB601CC4B2902CECDBFFF760
:100CB00023FD0BF1010000F0FF0B4FEA091058452E
:100CC000E0DC0026781CC7B2102F00D100270124D9
:100CD00010E000250AE0B64800EBC400415D601E4C
:100CE000B34A02EBC0004155681CC5B2082DF2DBC7
:100CF000601CC4B2902CECDBFFF7FEFCB2E72DE9E0
:100D0000FF4F05460E4617461C46DDF838904FF05B
:100D1000000A0095B3462046E21704EB5272D21047
:100D20002146E31704EB5373DB10A4EBC3030BB1B1
:100D3000012300E000231A44D4B24FF0000845E03C
:100D4000002003903BE00D9810F80A0002900AF191
:100D500001001FFA80FA002001901DE0029800F0C7
:100D6000010028B14A4631462846FFF7FDFC0AE05B
:100D7000B9F1000F01D1012000E000200246314608
:100D80002846FFF7F1FC029840100290701CC6B292
:100D90000198401CC0B2019001980828DEDB681C55
:100DA000C5B20098281AB84204D1009D0BF1080082
:100DB00000F0FF0B5E460398401CC0B203900398FE
:100DC000B842C0DB08F1010000F0FF08A045B7DB26
:100DD000BDE8FF8F08B50121082001F033FA4FF478
:100DE0007040ADF8000010208DF8030003208DF84E
:100DF000020069466F4800F069FF4FF470416D488A
:100E000001F011F84FF480516A4801F00EF8C82043
:100E1000FFF77AFA4FF48051664801F004F8002198
:100E2000AE20FFF7F5FB00210846FFF7F1FB00219C
:100E30001020FFF7EDFB00214020FFF7E9FB002128
:100E40008120FFF7E5FB0021CF20FFF7E1FB002128
:100E5000A120FFF7DDFB0021C820FFF7D9FB00210F
:100E6000A620FFF7D5FB0021A820FFF7D1FB00212A
:100E70003F20FFF7CDFB0021D320FFF7C9FB002166
:100E80000846FFF7C5FB0021D520FFF7C1FB002175
:100E90008020FFF7BDFB0021D920FFF7B9FB00211F
:100EA000F120FFF7B5FB0021DA20FFF7B1FB0021AD
:100EB0001220FFF7ADFB0021DB20FFF7A9FB00218B
:100EC0004020FFF7A5FB00212020FFF7A1FB002118
:100ED0000220FFF79DFB00218D20FFF799FB0021E9
:100EE0001420FFF795FB0021A420FFF791FB0021C0
:100EF000A620FFF78DFBFFF722FC0021AF20FFF7B4
:100F000087FB08BD2DE9FC4106460F4690460024AC
:100F1000012010230022022100901420FFF721FE5F
:100F2000012010230246022100902820FFF719FE1D
:100F30000120102320A2022100903C20FFF799FD00
:100F400035120A2D0BDA0120102103462A46CDE97D
:100F5000001002214620FFF7BEFD082418E0642D92
:100F60000BDA0120102102232A46CDE90010194690
:100F70004620FFF7B0FD10240AE0012010210323D2
:100F80002A46CDE9001002214620FFF7A4FD1824CF
:100F9000F5B2012004F146010090C8B210230DE023
:100FA0002C540008CC55000814560008945600082C
:100FB0004C000020000C01403A00000082A20221F7
:100FC000FFF757FD08340A2D0CDA01201021CDE976
:100FD000001004F14601C8B201232A460221FFF79E
:100FE0007AFD1AE0642D0CDA01201021CDE9001001
:100FF00004F14601C8B202232A461946FFF76BFDE9
:101000000BE001201021CDE9001004F14601C8B227
:1010100003232A460221FFF75EFD0120102302224E
:10102000162100901420FFF79CFD012010230322BD
:10103000162100902820FFF794FD01201023AFF225
:101040008802162100903C20FFF713FD3D120A2D67
:101050000BDA0120102103462A46CDE900101621A3
:101060004620FFF738FD082418E0642D0BDA012034
:10107000102102232A46CDE9001016214620FFF751
:101080002AFD10240AE00120102103232A46CDE97D
:10109000001016214620FFF71EFD1824FDB2012086
:1010A00004F146010090C8B2102347A21621FFF7B1
:1010B000E0FC08340A2D0CDA01201021CDE90010E3
:1010C00004F14601C8B201232A461621FFF703FDA9
:1010D0001AE0642D0CDA01201021CDE9001004F192
:1010E0004601C8B202232A461621FFF7F4FC0BE0A2
:1010F00001201021CDE9001004F14601C8B20323FC
:101100002A461621FFF7E7FC0120102308222A2196
:1011100000901046FFF725FD0120102309222A2107
:1011200000901820FFF71DFD012010230A222A211C
:1011300000902820FFF715FD012010230B222A2103
:1011400000903820FFF70DFD01201023AFF2981218
:101150002A2100904820FFF78CFCB8F10A0F0BDA27
:101160000120102103464246CDE900102A215820D3
:10117000FFF7B1FC082419E0B8F1640F0BDA012085
:10118000102102234246CDE900102A215820FFF702
:10119000A2FC10240AE00120102103234246CDE9DD
:1011A00000102A215820FFF796FC1824FFF7A4FA14
:1011B000BDE8FC8110B5054802880548018805484E
:1011C0000088FFF79FFE10BD2E00000012000020D7
:1011D000180000201600002008B50121102001F0A1
:1011E00031F80220ADF8000010208DF80300032034
:1011F0008DF802006946774800F068FD08BD08B523
:101200000220ADF8000004208DF8030003208DF8C3
:10121000020069466F4800F059FD08BD10B5022173
:101220006C4800F0E6FD04460CB9002010BD01201A
:10123000FCE710B50446012C04D10221654800F0FA
:10124000F2FD03E00221634800F0EFFD10BD10B590
:10125000044614B12046FFF757F810BD10B50446F8
:1012600014B12046FFF758F810BD70B500240025D2
:101270001BE06006040E00BFFFF7D0FF0028FBD084
:101280000A20FFF7EBFF0A20FFF7E8FF0A20FFF72D
:10129000E5FFFFF7C3FF30B144F0010400BFFFF7E3
:1012A000BDFF0028FBD1681CC5B2082DE1DB20463C
:1012B00070BD10B5FFF790FF0020FFF7BAFF1220B6
:1012C000FFF7C5FF0120FFF7B4FF0A20FFF7C6FFB5
:1012D0000A20FFF7C3FF0120FFF7ABFFFFF78FFFE7
:1012E000FFF79CFF58B900BFFFF798FF0028FBD01D
:1012F00000BFFFF793FF0028FBD1012010BD0020A5
:10130000FCE77CB504460D46FFF7D3FF00284BD021
:10131000FFF7ABFF8DF80000FFF7A7FF8DF8010086
:10132000FFF7A3FF8DF80200FFF79FFF8DF8030082
:10133000FFF79BFF8DF80400FFF74EFF0120FFF73A
:1013400078FF9DF800009DF8011008449DF80210F8
:1013500008449DF803100844C6B29DF80400B0424A
:1013600025D19DF80400002821D09DF80400FF2815
:101370001DD09DF802000002208020889DF80310F7
:10138000084320809DF800000002288028889DF8EE
:1013900001100843288028880212208801120EA01C
:1013A00002F0D8F900207CBD11A002F0D3F9012091
:1013B000F9E71CB5694601A8FFF7A3FF04463CB94D
:1013C000BDF8040012490880BDF8000011490880EA
:1013D0001CBD00000010014074656D70203D20258B
:1013E000642068756D69203D2025640A0D000000A9
:1013F0004552524F523A2044485431315F73746120
:1014000072745F73616D706C696E67200A0D000005
:10141000160000201800002000BF704770B5044679
:101420000D4600BF8021A74802F028F80028F9D017
:10143000A1B2A44801F0B4FF204670BD10B586B03B
:101440000446012144F2040000F0FCFE4FF4007059
:10145000ADF8140003208DF8160018208DF8170041
:1014600005A9994800F032FC4FF48060ADF81400F3
:1014700004208DF8170005A9934800F027FC2520CB
:101480008DF8000001208DF8010002208DF8020087
:1014900001208DF80300684600F027F90194002030
:1014A000ADF80800ADF80A00ADF80C00ADF810007A
:1014B0000C20ADF80E0001A9824801F078FE01224F
:1014C00040F225517F4801F00AFF01217D4801F0DB
:1014D000FAFE06B010BD10B5044600BF8021794861
:1014E00001F0CCFF0028F9D02146764801F058FFE2
:1014F00010BD10B540F22551724801F0D5FF10B370
:10150000704801F051FFC4B27048008800F40040F8
:10151000C8B96E48008800F4804060B10A2C03D03E
:1015200000206A49088020E06848008840F40040B4
:101530006649088019E00D2C06D16448008840F403
:1015400080406249088010E060480088C0F30D00C8
:101550005F490C545D480088401C5C49088008467F
:101560000088C72801DD0020088010BD70B55748ED
:10157000008800F4004080B154480578C82D09DA8D
:10158000002405E05249085DFFF7A5FF601CC4B2C6
:10159000AC42F7DB00204D49088070BD10B586B025
:1015A00004460121042000F04DFE0121480400F012
:1015B00056FE0420ADF8140003208DF81600182004
:1015C0008DF8170005A9404800F080FB0820ADF811
:1015D000140004208DF8170005A93B4800F076FBA5
:1015E0000121480400F055FE00214FF4003000F0C6
:1015F00050FE26208DF8000003208DF801008DF8A4
:10160000020001208DF80300684600F06EF8019496
:101610000020ADF80800ADF80A00ADF80C00ADF8F8
:1016200010000C20ADF80E0001A92A4801F0BFFD02
:101630000121284801F047FE012240F225512548AA
:1016400001F04DFE06B010BD10B540F22551214805
:1016500001F02AFF10B31F4801F0A6FEC4B21E48D5
:10166000008800F40040C8B91B48008800F480409E
:1016700060B10A2C03D000201749088020E01648EA
:10168000008840F400401449088019E00D2C06D170
:101690001148008840F480400F49088010E00E484F
:1016A0000088C0F30D000D490C540B480088401C05
:1016B0000949088008460088C72801DD0020088005
:1016C00010BD00000038014000080140200000204B
:1016D000CC0400200044004022000020940500209B
:1016E00031490143314A1160704770B50021002330
:1016F0000F22C47804B32D4C246804F4E064C4F5CC
:10170000E064210AC1F10403CA40447804FA03F1F9
:101710008478144021430901254C0678A1550478AA
:1017200004F01F050124AC4005786D11AD0005F1F2
:10173000E025C5F8004109E0047804F01F05012404
:10174000AC401C4D0678761145F8264070BD1A4A0B
:101750000A400243154B1B1F1A60704739B1134AE8
:10176000121D12680243114B1B1D1A6006E00F4A3E
:10177000121D126882430D4B1B1D1A60704704280E
:1017800008D14FF0E021096941F004014FF0E02257
:10179000116107E04FF0E021096921F004014FF0E9
:1017A000E0221161704700000000FA050CED00E036
:1017B00000E400E080E100E080FFFF1F10B5044678
:1017C000FA48844208D10121401500F055FD00215E
:1017D000601500F051FD17E0F548844208D1012161
:1017E000001500F049FD0021201500F045FD0BE03B
:1017F000F048844208D10121C80300F03DFD0021DA
:101800004FF4004000F038FD10BD30B50246002016
:1018100000235068E84C20400D790C6844EA052408
:10182000204350609068E54C2040D1E902542C439D
:101830004D7944EA450420439060D06A20F470005A
:101840000C7C641EE4B2234340EA0350D06230BDF6
:1018500000210160017141718160C1600121017449
:10186000704721B1826842F00102826003E0826821
:1018700022F001028260704721B1826842F48072D6
:10188000826003E0826822F480728260704710B543
:101890000023CBB21AB144681C43446002E04468A0
:1018A0009C43446010BD816841F00801816070472D
:1018B000014600208A6802F008020AB1012000E017
:1018C00000207047816841F0040181607047014643
:1018D00000208A6802F004020AB1012000E0002022
:1018E000704721B1826842F4A002826003E08268FE
:1018F00022F4A00282607047014600208A6802F448
:1019000080020AB1012000E00020704710B50A46AD
:1019100000210023416821F46041531E41EA433114
:10192000416010BD21B1426842F40062426003E0B0
:10193000426822F4006242607047F0B504460D46EA
:1019400000200021092D11DDE068A5F10A0606EB53
:101950004607072606FA07F18843A5F10A0606EBB3
:10196000460603FA06F10843E0600CE0206905EB47
:101970004507072606FA07F1884305EB450603FAF3
:1019800006F108432061072A0FDA606B561E06EB4A
:1019900086071F2606FA07F18843561E06EB8606C1
:1019A00005FA06F10843606322E00D2A0FDA206B86
:1019B000D61F06EB86071F2606FA07F18843D61FB7
:1019C00006EB860605FA06F10843206310E0E06A9C
:1019D000A2F10D0606EB86071F2606FA07F18843DB
:1019E000A2F10D0606EB860605FA06F10843E06251
:1019F000F0BD21B1826842F48012826003E0826807
:101A000022F48012826070470146C86C80B2704731
:101A100066484C300068704721B1426842F48062E9
:101A2000426003E0426822F480624260704721B164
:101A3000426842F48052426003E0426822F48052DD
:101A4000426070470A460021816821F4E041114359
:101A50008160704721B1826842F40042826003E0F5
:101A6000826822F400428260704721B1826842F4A9
:101A70000212826003E0826822F4021282607047E0
:101A8000014600208A6802F400120AB1012000E039
:101A900000207047F0B504461546002000220026BD
:101AA000092911DDE068A1F10A0707EB470C0727B8
:101AB00007FA0CF29043A1F10A0707EB470703FA74
:101AC00007F21043E0600CE0206901EB410C0727AE
:101AD00007FA0CF2904301EB410703FA07F21043B7
:101AE0002061A06BC0F30156EF1C06F1010CA7EBBF
:101AF0000C0707EB870C1F2707FA0CF29043EF1C2B
:101B000006F1010CA7EB0C0707EB870701FA07F2B8
:101B10001043A063F0BD10B50A4600210023816B7D
:101B200021F44011531E41EA0351816310BD08B5F1
:101B3000002300930090009B0B440093009B1A60CD
:101B400008BD08B5024600200090009201F128006F
:101B5000009B184400900098006880B208BD0A46B7
:101B600000214168164B19401143416070474162A2
:101B7000826270470A460021416821F01F0111432B
:101B80004160704740B109490831096841F40001DA
:101B9000064A0832116007E004490831096821F457
:101BA0000001024A08321160704700000024014021
:101BB00000280140003C0140FFFEF0FFFDF7F1FF6F
:101BC000FFFD3FFF0246002013680B400BB10120D0
:101BD00000E000207047CA430260704770B50246BB
:101BE0000020002300240B125568CEB205EA06043B
:101BF00015681D4015B10CB1012000E0002070BD3A
:101C000000220A12D34303607047000010B5044657
:101C1000CC48844208D10121042000F02DFB002192
:101C2000042000F029FB46E0C748844208D1012186
:101C3000082000F021FB0021082000F01DFB3AE005
:101C4000C248844208D10121102000F015FB002178
:101C5000102000F011FB2EE0BD48844208D1012184
:101C6000202000F009FB0021202000F005FB22E0ED
:101C7000B848844208D10121402000F0FDFA00213B
:101C8000402000F0F9FA16E0B348844208D101215F
:101C9000802000F0F1FA0021802000F0EDFA0AE047
:101CA000AE48844207D10121801500F0E5FA0021F9
:101CB000A01500F0E1FA10BD10B50121084600F0B2
:101CC000DBFA0021012000F0D7FA10BD2DE9F04128
:101CD000024600250026002000230024002791F85A
:101CE00003C00CF00F0591F803C00CF0100CBCF110
:101CF000000F03D091F802C04CEA050591F800C02E
:101D0000BCF1000F31D0146800202BE04FF0010C23
:101D10000CFA00F3B1F800C00CEA03069E4220D191
:101D200083004FF00F0C0CFA03F7BC4305FA03FCD9
:101D30004CEA040491F803C0BCF1280F06D14FF01F
:101D4000010C0CFA00FCC2F814C00AE091F803C0C0
:101D5000BCF1480F05D14FF0010C0CFA00FCC2F8A1
:101D600010C0401C0828D1D31460B1F800C0BCF1E9
:101D7000FF0F34DD546800202EE000F1080C4FF016
:101D8000010808FA0CF3B1F800C00CEA03069E4201
:101D900021D183004FF00F0C0CFA03F7BC4305FA76
:101DA00003FC4CEA040491F803C0BCF1280F05D1F0
:101DB00000F1080C08FA0CF8C2F8148091F803C07E
:101DC000BCF1480F07D100F1080C4FF0010808FAE8
:101DD0000CF8C2F81080401C0828CED35460BDE82F
:101DE000F0814FF6FF710180022181700421C170E2
:101DF00070470246002093680B400BB1012000E0C1
:101E0000002070470146886880B270470246002073
:101E1000D3680B400BB1012000E000207047014661
:101E2000C86880B2704701617047416170470AB16C
:101E3000016100E041617047C16070474FF480323A
:101E40000A438261816182618269826970470246C8
:101E50000020434B18684FF68073184040EA021088
:101E600008433F4B186070473E49C8617047F0B562
:101E70000A46002300240021002500F00046B6F1A8
:101E8000004F02D1364EF16901E0354E7168C0F362
:101E9000034583B200F44016B6F5401F08D121F087
:101EA00070612F4E766826F070662D4F7E6012E0CE
:101EB00000F48016B6F5801F06D1032606FA05F455
:101EC000A14341F0706106E0460D360103FA06F6C3
:101ED000B14341F0706122B1460D360103FA06F6B6
:101EE000314300F00046B6F1004F02D11C4EF161C3
:101EF00001E01B4E7160F0BD30B500228B071C0F56
:101F00000F2303FA04F2164B08338C1053F82430D5
:101F10009343134C08348D1044F8253023468C101D
:101F200053F824308C07240F00FA04F423430C4C9C
:101F300008348D1044F8253030BD0A49DC31086082
:101F40007047000000080140000C014000100140F3
:101F50000014014000180140001C01400020014015
:101F60000000014000002042DF48006840F001000E
:101F7000DD49086008464068DC490840DA494860A5
:101F800008460068DA490840D749086008460068F2
:101F900020F4802008600846406820F4FE00486075
:101FA0004FF41F0088607047CF49096821F48031E1
:101FB000CD4A11601146096821F480211160B0F505
:101FC000803F03D0B0F5802F0ED106E0C6490968E6
:101FD00041F48031C44A116007E0C349096841F403
:101FE000A021C14A116000E000BF00BF704710B5DA
:101FF00001460022002300204A11012A02D1BA4CD6
:10200000236806E0022A02D1B74C236A01E0B64CED
:10201000636A01F01F02012494401C400CB10120AE
:1020200000E0002010BD38B50020009000240025FD
:1020300000BF3120FFF7DBFF05460098401C0090F1
:102040000098B0F5A06F01D0002DF2D03120FFF73D
:10205000CEFF08B1012400E00024204638BD01462F
:102060000020A14A106820F0F80040EAC10010608A
:102070007047A04908607047024600209A4B586894
:1020800020F47C1042EA01031843974B58607047D4
:1020900098490866704701460020934A506820F02E
:1020A00003000843506070478F48406800F00C0000
:1020B0007047014600208C4A506820F0F000084329
:1020C0005060704701460020874A506820F4E06065
:1020D00008435060704701460020834A506820F44E
:1020E000605040EAC1005060704729B17E4A527A80
:1020F00002437D4B5A7204E07B4A527A82437A4B08
:102100005A7270477B49D8310860704701460020F9
:10211000754A506820F440400843506070470021E1
:10212000714A20321170704A82F82010012802D0C2
:1021300004280AD104E001216B4A2032117005E025
:102140000521694A2032117000E000BF00BF7047CE
:102150006949086070476449096A0143624A11622B
:102160007047654944390860704730B50021002246
:10217000002400235C4D6D6805F00C0121B1042999
:1021800005D0082923D105E05C4D056022E05B4DB8
:1021900005601FE0544D6D6805F47012524D6D6876
:1021A00005F48034022505EB92421CB9544D554389
:1021B00005600BE04C4D6D6805F400351DB1504DC8
:1021C0005543056002E04D4D5543056002E04B4D1F
:1021D000056000BF00BF444D6D6805F0F0010909BE
:1021E000484D6B5C0568DD4045603F4D6D6805F40A
:1021F000E061090A434D6B5C4568DD4085603A4DFE
:102200006D6805F46051C90A3E4D6B5C4568DD4060
:10221000C560354D6D6805F44041890B3A4D6B5CE6
:10222000C568B5FBF3F5056130BD29B12E4A526989
:1022300002432D4B5A6104E02B4A526982432A4BD8
:102240005A61704729B1284A92690243264B9A6124
:1022500004E0254A92698243234B9A61704729B171
:10226000214AD2690243204BDA6104E01E4AD26956
:1022700082431D4BDA61704729B11B4AD268024381
:10228000194BDA6004E0184AD2688243164BDA60D0
:10229000704729B1144A12690243134B1A6104E0D2
:1022A000114A12698243104B1A6170471249403932
:1022B000086070470F49C86470470B49C871704780
:1022C0000948406A40F080700749486270470146FB
:1022D0000020054A92680A400AB1012000E000206F
:1022E0007047014988727047001002400000FFF8F3
:1022F000FFFFF6FE000042428004424200127A00D4
:1023000000093D00240000203400002010B50446E0
:10231000FE48844208D10121C014FFF7ADFF00211F
:10232000E014FFF7A9FFC4E0B4F1804F08D1012108
:102330000846FFF7AEFF00210120FFF7AAFFB8E033
:10234000F348844208D101210220FFF7A2FF0021B7
:102350000220FFF79EFFACE0EE48844208D1012145
:102360000420FFF796FF00210420FFF792FFA0E072
:10237000E948844208D101210820FFF78AFF0021A3
:102380000820FFF786FF94E0E448844208D1012149
:102390001020FFF77EFF00211020FFF77AFF88E072
:1023A000DF48844208D101212020FFF772FF00217D
:1023B0002020FFF76EFF7CE0DA48844208D101213B
:1023C0004014FFF759FF00216014FFF755FF70E03C
:1023D000D548844209D10121C804FFF74DFF0021EF
:1023E0004FF40020FFF748FF63E0D048844209D152
:1023F00001210805FFF740FF00214FF48010FFF78F
:102400003BFF56E0CA48844209D101214805FFF745
:1024100033FF00214FF40010FFF72EFF49E0C548BD
:10242000844208D101214020FFF733FF00214020E2
:10243000FFF72FFF3DE0C048844208D101218020F2
:10244000FFF727FF00218020FFF723FF31E0BB4883
:10245000844208D101218015FFF71BFF0021A01540
:10246000FFF717FF25E0B648844209D1012108048F
:10247000FFF702FF00214FF48030FFF7FDFE18E068
:10248000B048844209D101214804FFF7F5FE00213C
:102490004FF40030FFF7F0FE0BE0AB48844208D168
:1024A00001218804FFF7E8FE00214FF48020FFF7A8
:1024B000E3FE10BD00220288944B98420ED0994B47
:1024C00098420BD0B0F1804F08D0914B984205D084
:1024D000904B984202D0904B984204D14FF68F73A4
:1024E0001A404B881A438D4B984207D08C4B984228
:1024F00004D04FF6FF431A40CB881A4302808B88E2
:1025000083850B880385814B98420BD0854B98427D
:1025100008D08B4B984205D08A4B984202D08A4B08
:10252000984201D10B7A038601238382704770B5EC
:10253000002400220023058C4FF6FE7635400584EA
:10254000028C8388048B4FF68F752C40B51E2C406F
:102550000D882C43751E2A400D892A434D882A4335
:102560006A4DA8420BD06F4DA84208D0744DA842C6
:1025700005D0744DA84202D0734DA84213D14FF636
:10258000F7752A404D892A434FF6FB752A408D88FE
:102590002A434FF6FF652B404FF6FF552B408D89A0
:1025A0002B43CD892B4383800483CD888586028489
:1025B00070BD70B5002400220023058C4FF6EF7625
:1025C00035400584028C8388048B48F6FF752C40C7
:1025D0004FF6FF452C400D884FF6FF7606EA05259D
:1025E0002C434FF6DF752A400D8906EA05152A436C
:1025F0004D8806EA05152A43444DA84202D0494DAC
:10260000A8421DD14FF67F752A404D894FF6FF76BF
:1026100006EA05152A434FF6BF752A408D8806EA5B
:1026200005152A434FF6FF352B404FF2FF752B401F
:102630008D8906EA85052B43CD8906EA85052B435E
:1026400083800483CD880587028470BD70B5002423
:1026500000220023058C4FF6FF6635400584028C6E
:102660008388848B4FF68F752C404FF6FC752C4079
:102670000D882C434FF6FF552A400D894FF6FF7603
:1026800006EA05252A434D8806EA05252A431F4DFB
:10269000A84202D0234DA8421DD14FF2FF752A4017
:1026A0004D894FF6FF7606EA05252A434FF6FF359A
:1026B0002A408D8806EA05252A434EF6FF752B40F1
:1026C0004DF6FF752B408D8906EA05152B43CD8904
:1026D00006EA05152B4383808483CD888587028491
:1026E00070BD70B5002200230024058C4EF6FF76E5
:1026F00035400584038C8488828B48F6FF752A4018
:102700004FF6FF452A400D8820E00000002C0140D4
:102710000004004000080040000C00400010004091
:102720000014004000340140004C014000500140C2
:102730000054014000180040001C004000200040F0
:102740000040014000440140004801404FF6FF7640
:1027500006EA05252A434DF6FF752B400D8906EA4A
:1027600005352B434D8806EA05352B43FA4DA84223
:1027700002D0FA4DA84208D14BF6FF752C408D8946
:102780004FF6FF7606EA85152C4384808283CD8838
:10279000A0F84050038470BD828B4FF2FF331A4083
:1027A0008283828B4FF6FF7303EA01231A438283ED
:1027B0007047F0B50C461546002200210026078C14
:1027C0004EF6FF7C07EA0C070784828B018C4FF6DC
:1027D000FF7707EA043640F6FF473A404FF6FF77A7
:1027E00007EA05273A434FF6FF7707EA03373A43EC
:1027F000D94FB8420ED0D94FB8420BD0B0F1804F6C
:1028000008D0D74FB84205D0D64FB84202D0D64FE5
:10281000B84206D14DF6FF77394046F48057394328
:1028200005E047F6FF57394044F480573943828327
:102830000184F0BD828B4FF6F3731A408283828B42
:102840000A4382837047F0B50C46154600220021EA
:102850000026078C4FF6FF6C07EA0C070784828B73
:10286000018C4FF6FF7707EA04264FF60C773A40C3
:102870004FF6FF7707EA03172F433A43B64FB842A4
:102880000ED0B64FB8420BD0B0F1804F08D0B44F45
:10289000B84205D0B34FB84202D0B34FB84206D1C8
:1028A0004FF6FF57394046F48077394305E04FF241
:1028B000FF57394044F48077394382830184F0BD67
:1028C000028B4FF2FF331A400283028B4FF6FF73E5
:1028D00003EA01231A4302837047F0B50C461546FC
:1028E000002200210026078C4FF6EF7C07EA0C0738
:1028F0000784028B018C4FF6FF7707EA041640F637
:10290000FF473A404FF6FF7707EA03373A434FF65F
:10291000FF7707EA05273A438F4FB8420ED08F4F13
:10292000B8420BD0B0F1804F08D08D4FB84205D0DF
:102930008C4FB84202D08C4FB84206D14FF6DF77A9
:10294000394046F01007394305E04FF65F773940CC
:1029500044F01007394302830184F0BD028B4FF627
:10296000F3731A400283028B0A4302837047F0B567
:102970000C46154600220021068C4FF6FE773E409D
:102980000684028B018C4FF60C7632407E1C06EAE0
:1029900003162E433243704EB0420ED06F4EB042FB
:1029A0000BD0B0F1804F08D06D4EB04205D06D4EC7
:1029B000B04202D06C4EB04206D14FF6FD763140A7
:1029C00044F00106314305E04FF6F576314044F01E
:1029D0000106314302830184F0BD70B505460C4603
:1029E0005D4885420ED05D4885420BD0B5F1804FE1
:1029F00008D05B48854205D05A48854202D05A48E3
:102A0000854200D100E000BF208850B92389A28808
:102A100061882846FFF7ABFFE1882846FFF79EFF55
:102A200025E0208804280AD12389A28861882846C5
:102A3000FFF753FFE1882846FFF742FF17E02088A1
:102A400008280AD12389A28861882846FFF7FBFE5F
:102A5000E1882846FFF7EEFE09E02389A288618815
:102A60002846FFF7A6FEE1882846FFF795FE70BDD1
:102A70002DE9F04105460C4600260127608808B97B
:102A8000022600E00026A088012801D1022700E0EC
:102A900001272088A0B92389A28861882846FFF7EA
:102AA00066FFE1882846FFF759FF23893A463146F9
:102AB0002846FFF712FFE1882846FFF701FF13E0E1
:102AC0002389A28861882846FFF707FFE188284606
:102AD000FFF7F6FE23893A4631462846FFF747FFBF
:102AE000E1882846FFF73AFFBDE8F0810A884B8865
:102AF0001A438B881A43CB881A430B891A434B8994
:102B00001A438B891A43A0F8442070474FF6FF718F
:102B1000818000210180C1804180017270470021C5
:102B2000018041808180C180018141818181C18199
:102B30007047002101804180012181800021C180F6
:102B4000018170470021018041808180C180018125
:102B50004181818170470000002C01400034014018
:102B60000004004000080040000C004021B1028831
:102B700042F00102028004E002884FF6FE731A4020
:102B80000280704731B1B0F8442042F40042A0F80E
:102B9000442005E0B0F84420C2F30E02A0F844201F
:102BA00070471AB183890B43838102E083898B4389
:102BB000838170478182704741EA0203A0F8483060
:102BC00070471AB183890B43838102E083898B4369
:102BD0008381704701894FF6F87211400181704777
:102BE0000A46002101894FF68F7319401143018174
:102BF000704730B504460D4629462046FFF7F0FFE2
:102C0000208940F00700208130BD2DE9F0410446C5
:102C10000D4616461F46602D06D13B460122314621
:102C20002046FFF75AFE05E03B460122314620468A
:102C3000FFF79DFE29462046FFF7D2FF208940F08E
:102C400007002081BDE8F08130B50C4600210189E4
:102C5000C9B24FF6FF7505EA0325154325432943FD
:102C6000018130BD2DE9F04105460E4617469846D4
:102C7000002443463A4631462846FFF7E5FF2C89B3
:102C80004FF6F870044044F007044FF68F7004408C
:102C900044F070042C81BDE8F081F0B504460D4687
:102CA00016461F463B46324629462046FFF7CCFFD4
:102CB000208940F480402081F0BD018582827047E8
:102CC0000A46002101884FF68F7319401143018095
:102CD0007047F0B50C4615461E4600210022002321
:102CE0000189028B038C4FF6F877394021434FF668
:102CF000FC473A4040F201173A434FF6DD773B403C
:102D00004FF6FF7707EA06172F433B430181028303
:102D10000384F0BD0A460021018B4FF68F731940E2
:102D20001143018370470A460021018B48F6FF7367
:102D300019404FF6FF7303EA0223194301837047DA
:102D40000A460021818B4FF68F731940114381830E
:102D500070470A460021818B48F6FF7319404FF6F1
:102D6000FF7303EA022319438183704721B102886C
:102D700042F08002028004E002884FF67F731A401E
:102D80000280704721B1828842F00402828004E010
:102D900082884FF6FB731A408280704721B1828887
:102DA00042F00802828004E082884FF6F7731A40EE
:102DB0008280704721B1828842F00102828004E063
:102DC00082884FF6FE731A40828070470A460021BF
:102DD000018B4FF6F77319401143018370470A4680
:102DE0000021018B4FF2FF7319404FF6FF7303EA86
:102DF00002231943018370470A460021818B4FF655
:102E0000F77319401143818370470A460021818B73
:102E10004FF2FF7319404FF6FF7303EA0223194381
:102E2000818370470A460021018B4FF6FB731940DE
:102E30001143018370470A460021018B4FF6FF338F
:102E400019404FF6FF7303EA0223194301837047C9
:102E50000A460021818B4FF6FB7319401143818391
:102E600070470A460021818B4FF6FF3319404FF619
:102E7000FF7303EA02231943818370470A46002146
:102E8000018B4FF67F7319401143018370470A4647
:102E90000021018BC1F30E014FF6FF7303EA0223F9
:102EA0001943018370470A460021818B4FF67F73D7
:102EB00019401143818370470A460021818BC1F379
:102EC0000E014FF6FF7303EA022319438183704713
:102ED0000A460021018C4FF6FD731940114301840D
:102EE00070470A460021018C4FF6F77319401143D1
:102EF000018470470A460021018C4FF6DF731940A8
:102F00004FF6FF7303EA02131943018470470A4620
:102F10000021018C4FF67F7319404FF6FF7303EACF
:102F200002131943018470470A460021018C4FF6B1
:102F3000FF5319404FF6FF7303EA0223194301843C
:102F400070470A460021018C4FF2FF7319404FF67B
:102F5000FF7303EA02231943018470470A460021E4
:102F6000018C4DF6FF7319404FF6FF7303EA0233ED
:102F700019430184704730B5002301248C40A3B26B
:102F8000048C9C430484048C02FA01F5ADB22C43FA
:102F9000048430BD30B5002304248C40A3B2048CDB
:102FA0009C430484048C02FA01F5ADB22C430484E2
:102FB00030BD70B5034600200024184618300125A6
:102FC0008D40ACB21D8CA5431D8409B1082909D1DF
:102FD00000EB6100056825F0700505600568154384
:102FE00005600EE00D1FC5F34E052844056825F465
:102FF000E045056005684FF6FF7606EA0226354390
:10300000056070BD21B1028842F00202028004E036
:1030100002884FF6FD731A400280704721B1028882
:1030200042F00402028004E002884FF6FB731A406B
:103030000280704721B1828842F08002828004E0E1
:1030400082884FF67F731A408280704702884FF65D
:10305000F7731A40028002880A4302807047828810
:103060004FF68F731A40828082880A4382807047AD
:1030700002894FF6F8731A40028102890A430281DD
:10308000704702894FF67F731A40028102890A4312
:1030900002817047818470478185704781867047BF
:1030A0000187704781877047A0F8401070470288F9
:1030B0004FF6FF431A40028002880A43028070479D
:1030C0000146888E70470146088F70470146888FF9
:1030D00070470146B1F8400070470146888C704740
:1030E0000146088D704702460020138A0B400BB141
:1030F000012000E000207047CA430282704730B5CB
:103100000246002000230024158A05EA0103958960
:1031100005EA010413B10CB1012000E0002030BD2C
:10312000CA4302827047000010B50446FB4884423F
:1031300009D101218803FFF79FF800214FF4804057
:10314000FFF79AF832E0F648844209D10121480499
:10315000FFF79FF800214FF40030FFF79AF825E0C1
:10316000F048844209D101218804FFF792F8002138
:103170004FF48020FFF78DF818E0EB48844209D126
:103180000121C804FFF785F800214FF40020FFF764
:1031900080F80BE0E548844208D101210805FFF7DB
:1031A00078F800214FF48010FFF773F810BD2DE977
:1031B000F04786B005460E460024A24600BFA14651
:1031C0000027B08900B100BF2F462C8A4CF6FF7053
:1031D0000440F08804432C82AC894EF6F31004407E
:1031E000B08831890843718908430443AC81AC8AB3
:1031F0004FF6FF400440B0890443AC8201A8FEF7BB
:10320000B4FFC648874202D1DDF810A001E0DDF826
:103210000CA0A88900F4004040B10AEBCA0000EB02
:103220000A1031684900B0FBF1F807E00AEBCA0068
:1032300000EB0A1031688900B0FBF1F86420B8FB9C
:10324000F0F004012009642101FB1089A88900F431
:10325000004040B1322000EBC900B0FBF1F000F0BB
:103260000700044308E0322000EB09106421B0FBA2
:10327000F1F000F00F0004432C8106B0BDE8F087A8
:103280004FF41651016000218180C18001810C2121
:10329000418100218181704710B502460020108ACB
:1032A0004FF2FF0318400B884C8823438C8823433C
:1032B000CC8823431843108210BD00210180418037
:1032C0008180C180704721B1828942F4005282819D
:1032D00004E082894DF6FF731A4082817047F0B591
:1032E0000346002400260025002040F66A17B94254
:1032F00000D100BF1846C1F3421401F01F06012798
:1033000007FA06F5012C01D10C3004E0022C01D1A2
:10331000103000E014301AB107682F43076002E054
:103320000768AF430760F0BD1AB1838A0B438382FD
:1033300002E0838A8B4383827047028A4FF6F073E0
:103340001A400282028A0A430282704782894FF23F
:10335000FF731A40828182890A438281704721B1BA
:10336000828942F00202828104E082894FF6FD7375
:103370001A4082817047028A4FF6DF731A40028238
:10338000028A0A430282704721B1028A42F48042D3
:10339000028204E0028A4BF6FF731A4002827047F1
:1033A000C1F308028280704701468888C0F3080094
:1033B0007047818941F0010181817047028BD2B24F
:1033C0000283028B42EA012202837047028B02F4DD
:1033D0007F420283028B0A430283704721B1828AB3
:1033E00042F02002828204E0828A4FF6DF731A40A4
:1033F0008282704721B1828A42F01002828204E008
:10340000828A4FF6EF731A408282704721B1828A16
:1034100042F00802828204E0828A4FF6F7731A4073
:103420008282704721B1828942F40042828103E0A6
:103430008289C2F30E028281704721B1828A42F4EE
:103440000062828204E0828A4FF2FF731A40828215
:103450007047828A4FF6FB731A408282828A0A433F
:103460008282704721B1828A42F00202828204E0A5
:10347000828A4FF6FD731A4082827047024600200E
:10348000B1F5007F00D100BF13880B400BB10120C4
:1034900000E00020704701F40072B2F5007F00D117
:1034A00000BFCA430280704770B502460024002363
:1034B0000025002040F66A16B14200D100BFC1F3DA
:1034C000421501F01F03012606FA03F3012D02D174
:1034D0009689334006E0022D02D1168A334001E07E
:1034E000968A33400C12012606FA04F416883440FA
:1034F00013B10CB1012000E0002070BD10B5002216
:10350000002340F66A14A14200D100BF0A12012430
:103510009440A3B2DC43048010BD00000038014099
:103520000044004000480040004C00400050004073
:103530000948804709480047FEE7FEE7FEE7FEE747
:10354000FEE7FEE7FEE7FEE7FEE7FEE70448054983
:10355000054A064B704700004F360008310100084D
:10356000C0060020C00C0020C0080020C0080020B9
:103570000CB50020019000906C48006840F4803049
:103580006A49086000BF6948006800F40030009094
:103590000198401C0190009818B90198B0F5A06FEF
:1035A000F1D16248006800F4003010B101200090B1
:1035B00001E0002000900098012843D15C48006899
:1035C00040F010005A4908600846006820F00300E7
:1035D00008600846006840F00200086053484068F0
:1035E000524948600846406848600846406840F4D0
:1035F000806048600846406820F47C1048600846B7
:10360000406840F4E81048600846006840F0807068
:10361000086000BF4548006800F000700028F9D03D
:103620004248406820F0030040494860084640682E
:1036300040F00200486000BF3C48406800F00C00C9
:103640000828F9D10CBD10B5FFF792FF10BD10B5D9
:103650003648006840F00100344908600846406878
:1036600034490840314948600846006832490840FA
:103670002E4908600846006820F48020086008464B
:10368000406820F4FE0048604FF41F008860FFF798
:10369000DAFF4FF000602949086010BD10B5002125
:1036A00000200022214B5B6803F00C0121B10429AA
:1036B00006D0082928D107E0214B224C236027E0BF
:1036C0001F4B204C236023E0184B5B6803F4701001
:1036D000164B5B6803F48032022303EB904022B95F
:1036E000194B4343174C23600DE0104B5B6803F408
:1036F000003323B1144B4343124C236003E0104BBF
:103700004343104C236003E00D4B0E4C236000BF7D
:1037100000BF064B5B68C3F303130C4CE15C094B21
:103720001B68CB40074C236010BD00000010024016
:10373000002002400000FFF8FFFFF6FE08ED00E069
:1037400000127A003800002000093D003C000020F3
:10375000704700000FB4044910B503AA029800F0A6
:1037600005F910BC5DF814FB1C0000202DE9F041A8
:103770000E460446002020622046E168884730B3A8
:10378000252805D0D4E901219047206A401CF2E7A2
:10379000E168204600278847050018D0A5F14100C0
:1037A000192802D820354FF40067324629462046B2
:1037B0002760FCF7F7FC40B1012804D0F61D26F085
:1037C00007060836D8E7361DD6E72846DAE7206A26
:1037D000BDE8F0812DE9F041064600241068752906
:1037E000314616A510D0AFF30080002802DA40421F
:1037F00013A507E031688A0701D512A502E0490741
:1038000004D511A5012401E0AFF3008000210A22B4
:1038100006F1240709E0B0FBF2FCB0FBF2F302FB77
:103820001C00303078541846491C0028F3D1234638
:103830002A463046BDE8F04100F03EB800000000E6
:103840002D0000002B0000002000000010B5203AE1
:10385000C0F00B80B1E81850203AA0E81850B1E849
:103860001850A0E81850BFF4F5AF5FEA027C24BFFF
:10387000B1E81850A0E8185044BF18C918C0BDE8F6
:1038800010405FEA827C24BF51F8043B40F8043BBF
:1038900008BF7047D20728BF31F8023B48BF11F874
:1038A000012B28BF20F8023B48BF00F8012B7047CE
:1038B00070477047704770472DE9F0470D469946AD
:1038C0009246044600F124080168880604D5E069A0
:1038D00021F01001216000E00120A84201DD471B1A
:1038E00000E00027A1697A1902EB0900081AA0611B
:1038F0002078C00602D42046AFF30080002608E0FE
:10390000D4E901211AF806009047206A401C761C71
:1039100020624E45F4DB2078C0060AD52046AFF37E
:10392000008006E0D4E9012130209047206A401C45
:103930002062381EA7F10107F4DC07E0D4E9012179
:1039400018F805009047206A401C2062281EA5F147
:103950000105F3DC2046AFF300802078000602D595
:103960000220BDE8F0870120FBE70000074B70B59F
:103970000D467B4400F011F80446284600F020F87C
:1039800010B14FF0FF3070BD204670BDA7DAFFFFC9
:1039900001694A1C02610878704700B58FB0CDE913
:1039A00001310021059105497944CDE90310114603
:1039B0006846FFF7DBFE0FB000BD0000E5FFFFFF2C
:1039C000007B00F080007047754600F02BF8AE4693
:1039D00005006946534620F00700854618B020B51B
:1039E000FFF7B4FDBDE820404FF000064FF00007A0
:1039F0004FF000084FF0000B21F00701AC46ACE897
:103A0000C009ACE8C009ACE8C009ACE8C0098D4603
:103A1000704710B50446AFF300802046BDE8104063
:103A2000FCF7D2BB004870475C060020B3130008C7
:103A30000000000000000000B51100081905000892
:103A4000000000000000000000000000002F000047
:103A500000000700070000147F147F1400242A7F51
:103A60002A120062640813230036495522500000D0
:103A70000503000000001C224100000041221C0040
:103A80000014083E08140008083E0808000000A0C2
:103A900060000008080808080000606000000020BE
:103AA00010080402003E5149453E0000427F40009C
:103AB000004261514946002141454B310018141222
:103AC0007F10002745454539003C4A4949300001EF
:103AD0007109050300364949493600064949291E3E
:103AE00000003636000000005636000000081422A0
:103AF00041000014141414140000412214080002A0
:103B00000151090600324959513E007C1211127CC4
:103B1000007F49494936003E41414122007F4141F1
:103B2000221C007F49494941007F09090901003EE3
:103B30004149497A007F0808087F0000417F410021
:103B4000002040413F01007F08142241007F404097
:103B50004040007F020C027F007F0408107F003E7F
:103B60004141413E007F09090906003E4151215E65
:103B7000007F091929460046494949310001017F62
:103B80000101003F4040403F001F2040201F003FF8
:103B90004038403F006314081463000708700807AA
:103BA00000615149454300007F41410000552A55BD
:103BB0002A55000041417F00000402010204004038
:103BC000404040400000010204000020545454785A
:103BD000007F48444438003844444420003844447A
:103BE000487F00385454541800087E090102001818
:103BF000A4A4A47C007F080404780000447D400055
:103C0000004080847D00007F102844000000417F38
:103C10004000007C04180478007C08040478003814
:103C20004444443800FC242424180018242418FC9C
:103C3000007C0804040800485454542000043F4405
:103C40004020003C4040207C001C2040201C003CC8
:103C50004030403C004428102844001CA0A0A07C18
:103C6000004464544C441414141414140000000050
:103C700000000000000000000000FC000000000048
:103C800002000000000C020C020000000000000016
:103C900090D0BCD0BC900003000300001824FE4468
:103CA0008C000302070201001824D8B04C800003E6
:103CB00000010201C038E438E00001020201020202
:103CC000080600000000000000000000000000F8EE
:103CD0000402000000010204000204F800000004D5
:103CE000020100009060F8609000000001000000F8
:103CF0002020FC2020000000010000000000000047
:103D00000000080600000000202020202000000005
:103D100000000000000000000000000200000000A1
:103D20000080601C0200040300000000F80404048A
:103D3000F8000102020201000008FC00000000027D
:103D40000302000018844424180003020202020047
:103D500008042424D80001020202010040B088FCBB
:103D600080000000000302003C242424C40001025F
:103D700002020100F824242CC0000102020201000A
:103D80000C04E41C0400000003000000D8242424D8
:103D9000D80001020202010038444444F800000344
:103DA00002020100000010000000000002000000FC
:103DB00000002000000000000600000000205088E5
:103DC000040200000000010290909090900000001A
:103DD00000000000000204885020000201000000E2
:103DE0001804C4241800000002000000F804E49441
:103DF000F80001020202020000E09CF080000203D1
:103E00000000030204FC2424D80002030202010083
:103E1000F80404040C0001020202010004FC040482
:103E2000F80002030202010004FC24740C000203E7
:103E30000202030004FC24740C00020302000000D0
:103E4000F0080444CC4000010202010004FC2020E0
:103E5000FC040203000003020404FC040400020248
:103E600003020200000404FC04040604040300002E
:103E700004FC24D00C0402030200030204FC04002E
:103E80000000020302020203FC3CC03CFC000300F1
:103E90000300030004FC30C4FC040203020003001E
:103EA000F8040404F80001020202010004FC2424C6
:103EB0001800020302000000F8848404F8000102E4
:103EC0000207050004FC24649800020302000302B8
:103ED000182424448C000302020201000C04FC0498
:103EE0000C0000020302000004FC0000FC040001BE
:103EF00002020100047C80E01C04000003000000BA
:103F00001CE03CE01C00000300030000049C609CDB
:103F10000400020300030200041CE01C0400000271
:103F2000030200000C84641C04000203020203006C
:103F30000000FE020200000007040400000E30C072
:103F40000000000000010200000202FE0000000468
:103F5000040700000004020400000000000000004C
:103F6000000000000000080808080808000002001F
:103F700000000000000000000040A0A0C000000100
:103F80000202030204FC2020C00000030202010020
:103F900000C02020600000010202020000C02024B6
:103FA000FC0000010202030200C0A0A0C00000014A
:103FB000020202000020F82424040002030202008E
:103FC0000040A0A0602000070A0A0A0404FC202088
:103FD000C0000203020003020020E400000000020F
:103FE00003020000000020E40000080808070000A9
:103FF00004FC80E020200203020003020404FC0011
:104000000000020203020200E020E020C0000300E2
:104010000300030020E02020C0000203020003028E
:1040200000C02020C00000010202010020E020208A
:10403000C000080F0A02010000C02020E0000001BB
:10404000020A0F0820E040202000020302000000C6
:104050000060A0A020000002020203000020F8205F
:10406000000000000102020020E00020E00000014A
:104070000202030220E02080602000000301000013
:104080006080E0806000000300030000206080602A
:10409000200002030003020020E0208060200808C6
:1040A000070100000020A0602000000203020200BF
:1040B000000020DE0200000000070400000000FFF6
:1040C00000000000000F00000002DE2000000004DD
:1040D00007000000020102040402000000000000CA
:1040E00000000000000000000000000000000000D0
:1040F000000000F800000000000000333000000065
:1041000000100C06100C060000000000000000006B
:1041100040C07840C0784000043F04043F040400DD
:10412000007088FC08300000001820FF211E0000ED
:10413000F008F000E018000000211C031E211E0002
:1041400000F00888700000001E2123241927211088
:1041500010160E000000000000000000000000002B
:10416000000000E0180402000000000718204000D2
:1041700000020418E00000000040201807000000C2
:10418000404080F0804040000202010F0102020026
:10419000000000F0000000000101011F010101000A
:1041A000000000000000000080B07000000000006F
:1041B00000000000000000000001010101010101F8
:1041C000000000000000000000303000000000008F
:1041D0000000000080601804006018060100000064
:1041E00000E010080810E000000F102020100F0061
:1041F000001010F8000000000020203F20200000E8
:10420000007008080888700000302824222130003F
:1042100000300888884830000018202020110E0047
:104220000000C02010F8000000070424243F2400F0
:1042300000F80888880808000019212020110E00C5
:1042400000E0108888180000000F112020110E00D7
:1042500000380808C83808000000003F00000000CF
:104260000070880808887000001C222121221C0090
:1042700000E010080810E0000000312222110F00B9
:10428000000000C0C000000000000030300000004E
:1042900000000080000000000000806000000000BE
:1042A00000008040201008000001020408102000D7
:1042B0004040404040404000040404040404040022
:1042C00000081020408000000020100804020100B7
:1042D000007048080808F0000000003036010000B7
:1042E000C030C828E810E0000718272423140B006A
:1042F0000000C038E0000000203C230202273820E4
:1043000008F8888888700000203F202020110E00C7
:10431000C0300808080838000718202020100800BE
:1043200008F808080810E000203F202020100F00A7
:1043300008F88888E8081000203F20202320180073
:1043400008F88888E8081000203F200003000000DB
:10435000C03008080838000007182020221E02007C
:1043600008F808000008F808203F210101213F203B
:10437000000808F8080800000020203F2020000066
:1043800000000808F8080800C08080807F00000056
:1043900008F888C028180800203F2001263820008F
:1043A00008F8080000000000203F202020203000F6
:1043B00008F8F800F8F80800203F003F003F200010
:1043C00008F830C00008F808203F200007183F0018
:1043D000E01008080810E0000F10202020100F0047
:1043E00008F808080808F000203F2101010100003A
:1043F000E01008080810E0000F18242438504F007F
:1044000008F8888888887000203F2000030C30203E
:1044100000708808080838000038202121221C007C
:10442000180808F8080818000000203F20000000C5
:1044300008F808000008F808001F202020201F00AE
:104440000878880000C83808000007380E0100000E
:10445000F80800F80008F800033C0700073C0300D8
:10446000081868808068180820302C03032C30203E
:104470000838C800C83808000000203F20000000AD
:1044800010080808C8380800203826212020180005
:10449000000000FE020202000000007F40404000D9
:1044A000000C30C000000000000000010638C00011
:1044B00000020202FE000000004040407F000000B9
:1044C00000000402020204000000000000000000DE
:1044D00000000000000000008080808080808080DC
:1044E00000020204000000000000000000000000C4
:1044F00000008080808000000019242222223F20BA
:1045000008F8008080000000003F112020110E00FC
:104510000000008080800000000E1120202011008B
:10452000000000808088F800000E112020103F203D
:104530000000808080800000001F222222221300C1
:10454000008080F0888888180020203F202000000C
:104550000000808080808000006B949494936000C1
:1045600008F8008080800000203F210000203F20CC
:1045700000809898000000000020203F20200000CC
:10458000000000809898000000C08080807F0000BC
:1045900008F8000080808000203F24022D30200099
:1045A000000808F8000000000020203F2020000044
:1045B0008080808080808000203F20003F20003F5E
:1045C0008080008080800000203F210000203F206C
:1045D0000000808080800000001F202020201F001D
:1045E000808000808000000080FFA12020110E004C
:1045F0000000008080808000000E112020A0FF803D
:10460000808080008080800020203F2120000100E9
:10461000000080808080800000332424242419003E
:10462000008080E0808000000000001F202000004B
:104630008080000000808000001F202020103F208C
:10464000808080000080808000010E30080601001C
:1046500080800080008080800F300C030C300F00C1
:1046600000808000808080000020312E0E312000EC
:10467000808080000080808080818E70180601001C
:1046800000808080808080000021302C222130003A
:1046900000000000807C020200000000003F40405B
:1046A00000000000FF00000000000000FF0000000C
:1046B0000002027C800000000040403F000000003B
:1046C00000060101020204040000000000000000D6
:1046D00000000000000000000000000000000000DA
:1046E00000000000000000000000000000000000CA
:1046F000000000000000000000F0F0F000000000EA
:104700000000000000017F01000000000000000028
:10471000001C1C1C0000000000008060301C8C602D
:10472000301C0C0000000000000000000000000031
:10473000000000000000000000000000000000E099
:104740000000000000E000000086E69F8686868666
:10475000E69F860000011F01010101011F01010008
:10476000000080C06020F820E0C0000000000307C7
:104770000C18FF70E18100000000070F10107F107F
:104780000F0700008060206080000000E020000033
:104790000F3020309F70DC371030C0000000100E4A
:1047A00003000718101807000000C02020E0C00018
:1047B0000000000080E01F38E88703C43C040000CC
:1047C000070F1810100B070D1010080000808C4CFC
:1047D00038000000000000000000000000000000A1
:1047E00000000000000000000000000000000000C9
:1047F00000000000000080E030080400000000001D
:1048000000FEFF0100000000000000000000030F98
:104810001820400000040830E08000000000000084
:104820000000000001FFFE00000000000040201812
:104830000F03000000000000000000000000C000A6
:1048400000000000004266663C18FF183C666642A5
:104850000000000000000300000000000000000055
:104860000000800000000000001010101010FF1069
:1048700010101010000000000000030000000000F5
:104880000000000000000000000000000000000028
:10489000000000000000000000808C4C3800000088
:1048A0000000000000000000000000000000000008
:1048B0000010101010101010101010000000000058
:1048C00000000000000000000000000000000000E8
:1048D00000000000000000000000000000000000D8
:1048E00000001C1C1C000000000000000000000074
:1048F00000000000E0380C000000000080701C0385
:10490000000000000060380E010000000000000000
:10491000000080C060202060C080000000FEFF0119
:104920000000000001FFFE000001070E1810101823
:104930000E0701000000808080C0E0000000000041
:104940000000000000FFFF00000000000000101049
:10495000101F1F1010100000008040202020206039
:10496000C080000000030300804020381F070000C3
:10497000001C1A1918181818181F00000080C020F1
:10498000202060C080000000000303001010182FDA
:10499000E780000000070F10101010180F0700002C
:1049A000000000000000C0E0F000000000C0B0887F
:1049B000868180FFFF808000000000000010101F33
:1049C0001F1010000000E060606060606060000028
:1049D00000003F1008080818F0E0000000070B1066
:1049E0001010101C0F030000000080C04020202089
:1049F000E0C0000000FCFF211008080818F0E000EB
:104A00000001070C18101010080F03000000C0E090
:104A10006060606060E06000000003000000E0187B
:104A20000700000000000000001F1F000000000041
:104A30000080C0602020202060C080000087EF2C14
:104A40001818303068CF830000070F0810101010BE
:104A5000180F07000000C0C020202020C0800000E8
:104A6000001F3F604040402010FFFE0000000C1C73
:104A7000101010080F0300000000000000000000EC
:104A80000000000000000000000E0E0E00000000FC
:104A900000000000001C1C1C0000000000000000C2
:104AA000000000000000000000000000000C0C00EE
:104AB0000000000000000000005838000000000066
:104AC00000000000000000804020100000001028BE
:104AD000448201000000000000000000000001020C
:104AE00004081000000000000000000000000000AA
:104AF000008484848484848484848400000000008E
:104B000000000000000000000000102040800000B5
:104B10000000000000000000000001824428100096
:104B200000001008040201000000000000C0202066
:104B30001010101030E0C0000003030000F0100857
:104B40000C070300000000001C1C1C0000000000FB
:104B5000000000C0406020202040C00000FCFF0199
:104B6000F00E03C1FE03807F0001070E0811111033
:104B7000110904020000000080E0E00000000000D5
:104B80000000807C4340477FF880000010181F1011
:104B900000000000131F1C1020E0E02020202060F7
:104BA000C080000000FFFF10101010182FE78000D9
:104BB000101F1F1010101010180F0700000080C0E9
:104BC000402020202060E00000FCFF0100000000E9
:104BD000000001000001070E181010100804030067
:104BE00020E0E02020202040C080000000FFFF00E7
:104BF0000000000001FFFE00101F1F101010180819
:104C00000E07010020E0E02020202020206080000E
:104C100000FFFF101010107C00000000101F1F107C
:104C2000101010101018060020E0E0202020202096
:104C30006060800000FFFF101010107C0000010079
:104C4000101F1F100000000000000000000080C0C6
:104C50006020202040E0000000FCFF0100004040F8
:104C6000C0C140400001070E181010100F0F0000C7
:104C700020E0E0200000000020E0E02000FFFF1026
:104C80001010101010FFFF00101F1F100000000078
:104C9000101F1F100000202020E0E0202020000036
:104CA0000000000000FFFF000000000000001010E6
:104CB000101F1F101010000000000000202020E036
:104CC000E020202000000000000000FFFF000000A6
:104CD0000060E0808080C07F3F00000020E0E02096
:104CE000000020A06020200000FFFF30187CE3C0FF
:104CF00000000000101F1F10000001131F1C1810DF
:104D000020E0E020000000000000000000FFFF00A5
:104D10000000000000000000101F1F1010101010F5
:104D20001018060020E0E0E000000000E0E0E020D5
:104D300000FF013FFEC0E01E01FFFF00101F10003A
:104D4000031F0300101F1F1020E0E0C00000000040
:104D50000020E02000FF0003071C78E08000FF0037
:104D6000101F100000000000030F1F00000080C093
:104D700060202060C080000000FEFF0100000000F5
:104D800000FFFE000001070E181010180C070100AC
:104D900020E0E0202020202060C0800000FFFF20D5
:104DA00020202020301F0F00101F1F1000000000C7
:104DB00000000000000080C060202060C080000073
:104DC00000FEFF010000000000FFFE000001070ED2
:104DD0001111133C7C67210020E0E02020202020DE
:104DE00060C0800000FFFF101030F0D0080F0700F7
:104DF000101F1F10000000030F1C10100080C06067
:104E0000202020204040E00000070F0C1818303010
:104E100060E08100001F0C0810101010180F070030
:104E20008060202020E0E020202060800100000041
:104E300000FFFF000000000100000000101F1F1015
:104E40000000000020E0E020000000000020E02042
:104E500000FFFF00000000000000FF0000070F1827
:104E600010101010100807002060E0E02000000083
:104E700020E060200000077FF88000807C030000B5
:104E800000000000071F1C070000000020E0E020D9
:104E900000E0E0200020E0200007FFF8E01FFFFC1A
:104EA000E01F00000000031F0300011F03000000BB
:104EB000002060E0A0000020E0602000000000036F
:104EC0008F7CF8C6010000000010181E13000117A7
:104ED0001F1810002060E0E02000000020E06020AB
:104EE000000001073EF8E018070000000000001075
:104EF000101F1F101000000000806020202020A044
:104F0000E0E0200000000000C0F03E0F03000000C1
:104F100000101C1F171010101018060000000000D1
:104F200000FC0404040404000000000000FF000072
:104F30000000000000000000007F404040404000B2
:104F4000000010E000000000000000000000000071
:104F5000031C60800000000000000000000000034F
:104F60000C70800000000404040404FC0000000035
:104F700000000000000000FF0000000000004040B2
:104F80004040407F0000000000000010080C040CAE
:104F900008100000000000000000000000000000F9
:104FA0000000000000000000000000000000000001
:104FB00000000000000000000000000000000000F1
:104FC00000000000808080808080808080808080E1
:104FD00000000004040808000000000000000000B9
:104FE00000000000000000000000000000000000C1
:104FF00000000000000000000000000000000000B1
:10500000000098D844642424FCF80000000F1F1806
:10501000101010081F1F10180020E0F00000000002
:10502000000000000000FFFF180804040CF8F00066
:1050300000001F0F18101010180F030000000000D0
:10504000000000000000000000E0F8180404043C28
:105050003800000000030F0C1010101008060000AC
:105060000000000000000020E0F0000000E0F81C5C
:1050700004040408FFFF000000030F1810101008BC
:105080001F0F0800000000000000000000000000EA
:105090000000E0F8484444444C7870000000030FDE
:1050A0000C181010100804000000000080C06020E0
:1050B00020E0C00000040404FFFF04040404000016
:1050C000000010101F1F1010100000000000000052
:1050D0000000000000000000000070F88C04048C48
:1050E000F874040C007076CF8D8D8D89C8787000AF
:1050F0000020E0F000000000000000000000FFFFC2
:1051000008040404FCF8000000101F1F1000001029
:105110001F1F100000000000006060000000000081
:105120000000040404FCFC0000000000000010105B
:10513000101F1F1010100000000000000000006091
:105140006000000000000000040404FCFC000000FB
:105150000000C0C08080C07F3F0000000020E0F061
:1051600000000000000000000000FFFF80C0F41CF1
:105170000404000000101F1F1100031F1C1010006A
:105180000000202020E0F0000000000000000000EF
:1051900000FFFF000000000000001010101F1F1093
:1051A00010100000000000000000000000000000DF
:1051B00004FCFC0804FCFC0804FCFC00101F1F108D
:1051C000001F1F10001F1F10000000000000000043
:1051D000000000000004FCFC08080404FCF80000C7
:1051E00000101F1F100000101F1F10000000000003
:1051F000000000000000000000E0F0180C04040CA7
:1052000018F0E00000030F0C101010100C0F03003A
:105210000000000000000000000000000004FCFC92
:10522000080404040CF8F0000080FFFF88901010C0
:105230001C0F030000000000000000000000000040
:1052400000E0F81C04040408F8FC000000030F1838
:1052500010109088FFFF8000000000000000000098
:1052600000000000040404FCFC100804040C0C0002
:105270001010101F1F101010000000000000000090
:10528000000000000000000000003078CCC48484DE
:10529000840C1C0000001E1810101011190F0600BD
:1052A0000000000000C00000000000000004040432
:1052B000FFFF040404000000000000000F1F101096
:1052C000100C0000000000000000000000000000C2
:1052D0000004FCFE00000004FCFE000000000F1FA4
:1052E000181010081F0F0800000000000000000048
:1052F0000000000000040C3CFCC40000C43C0C0492
:1053000000000000010F1E0E010000000000000060
:105310000000000000000000043CFCC400E47CFC31
:1053200084807C040000071F070000071F0700009F
:105330000000000000000000000000000004041C49
:105340007CE4C0341C0404000010101C1601131F60
:105350001C18100000000000000000000000000009
:1053600000040C3CFCC400C43C0404000000C080E9
:10537000C1370E0100000000000000000000000026
:105380000000000000001C0404C4F47C1C040000A5
:105390000000101C1F17111010180E000000000054
:1053A000000000F80C04000000000000001028EFCE
:1053B00000000000000000000000003F604000000E
:1053C000000000000000FF000000000000000000DE
:1053D0000000FF0000000000000000000000FF00CF
:1053E000000000000000040CF800000000000000B5
:1053F00000000000EF2810000000000000004060E6
:105400003F0000000000000000180602020408101F
:105410002020300800000000000000000000000014
:105420000000000000000000000000001060028C7E
:105430000000FE9292929292FE00000004047E010F
:10544000407E42427E427E42427E40000000FC247A
:105450002424FC252624FC242424040040308F80AE
:10546000844C55252525554C808080001060028C89
:1054700000FE929292929292FE00000004047E013D
:105480004448507F40407F50484440000000FC2486
:105490002424FC252624FC242424040040308F806E
:1054A000844C55252525554C80808000484AFA0AB1
:1054B000FE09F949A80000F00000FF0022110B04CA
:1054C000FF0409122300000F40807F0080804020ED
:1054D000504844C344485020408080000040221A75
:1054E0000242827F0202020A126000000000F88875
:1054F000888888FF88888888F800000000001F08D6
:105500000808087F888888889F80F000202020BEB7
:10551000AAAAAAAAAAAAAABE20202000008080AF18
:10552000AAAAAAFFAAAAAAAF80800000100C44244D
:10553000140405060404142444140C0000404041E3
:105540004141417F414141414040000020104C47D2
:1055500054545454545454D4040400000000000023
:10556000000000000000000F3040F0000000FE12BC
:105570001292929292FF91919191100080601F80FF
:10558000805F4020100E1010205F8000202020BE81
:10559000AAAAAAAAAAAAAABE20202000008080AF98
:1055A000AAAAAAFFAAAAAAAF80800000F008F080E9
:1055B0006018000000310C031E211E0000000000D6
:1055C000000000000000000000000000000000C01B
:1055D00080808080808080FC84808080808080C00B
:1055E000C0000000000000FF7F404040404040FFFE
:1055F00040404040404040FF7F000000000000006D
:10560000000000000000007F7000000000000000AB
:10561000000000000000000000000000000000008A
:10562000000000FCF8000000000000000000000086
:105630000000000000000000FFFE02020202020261
:10564000020202FFFF020202020202020202FF0342
:1056500000000000000000001F1F040404040404F4
:10566000040404FFFF0404040404040404041F00ED
:10567000000000000000000000000000000000002A
:105680000000007F3F00000000000000000000005C
:10569000000000000000000000000000000000000A
:1056A00000000000000000000000000000000000FA
:1056B00000F8F8F0F070200000000000000000008A
:1056C00000000000000000000000000000000000DA
:1056D000000000000000000000000000800000004A
:1056E00000000000000000000000000000000000BA
:1056F00000FFFFFFFF0000000000000000000000AE
:105700000000000000000000808000000000000099
:1057100000000000000000000000000000FFFFFE8D
:105720000606060606060606060606060606060619
:1057300006FFFFFFFF060606060606060606060625
:1057400006060606060606FFFFFFFF07020000002A
:1057500000000000000000000000000000FFFFFF4C
:105760000000000000000000000000000000000039
:1057700000FFFFFFFF00000000000000000000002D
:1057800000000000000000FFFFFFFF00000000001D
:1057900000000000000000000000000000FFFFFF0C
:1057A0001818181818181818181818181818181879
:1057B00018FFFFFFFF1818181818181818181818CD
:1057C00018181818181818FFFFFFFF000000000035
:1057D00000000000000000000000000002010100C5
:1057E00000000000000000000000000000000000B9
:1057F00000FFFFFFFF0000000000000000000000AD
:105800000000000000000001010000000000000096
:105810000000000000000000000000000000000088
:105820000000000000000000000000000000000078
:1058300000FFFFFFFF00000000000000000000006C
:105840000000000000000000000000000000000058
:105850000000000000000000000000000000000048
:105860000000000000000000000000000000000038
:10587000001F1F0F0F0000000000000000000000CC
:105880000000000000000000000000000000000018
:1058900000000000B4580008000000204C00000088
:1058A0006C010008005900084C000020740C000036
:1058B0008801000800000000000000000000000057
:1058C0000000000048000000000000000000000090
:1058D00000000000000000000000000001020304BE
:1058E00001020304060708090204060800A24A048C
:1058F0000000000000000000010203040607080980
:0400000508000131BD
:00000001FF
